{
  "_format": "hh-sol-artifact-1",
  "contractName": "ElectronicSupplyChain",
  "sourceName": "contracts/ElectronicSupplyChain.sol",
  "abi": [
    {
      "inputs": [],
      "stateMutability": "nonpayable",
      "type": "constructor"
    },
    {
      "inputs": [],
      "name": "AccessControlBadConfirmation",
      "type": "error"
    },
    {
      "inputs": [
        {
          "internalType": "address",
          "name": "account",
          "type": "address"
        },
        {
          "internalType": "bytes32",
          "name": "neededRole",
          "type": "bytes32"
        }
      ],
      "name": "AccessControlUnauthorizedAccount",
      "type": "error"
    },
    {
      "inputs": [
        {
          "internalType": "address",
          "name": "sender",
          "type": "address"
        },
        {
          "internalType": "uint256",
          "name": "tokenId",
          "type": "uint256"
        },
        {
          "internalType": "address",
          "name": "owner",
          "type": "address"
        }
      ],
      "name": "ERC721IncorrectOwner",
      "type": "error"
    },
    {
      "inputs": [
        {
          "internalType": "address",
          "name": "operator",
          "type": "address"
        },
        {
          "internalType": "uint256",
          "name": "tokenId",
          "type": "uint256"
        }
      ],
      "name": "ERC721InsufficientApproval",
      "type": "error"
    },
    {
      "inputs": [
        {
          "internalType": "address",
          "name": "approver",
          "type": "address"
        }
      ],
      "name": "ERC721InvalidApprover",
      "type": "error"
    },
    {
      "inputs": [
        {
          "internalType": "address",
          "name": "operator",
          "type": "address"
        }
      ],
      "name": "ERC721InvalidOperator",
      "type": "error"
    },
    {
      "inputs": [
        {
          "internalType": "address",
          "name": "owner",
          "type": "address"
        }
      ],
      "name": "ERC721InvalidOwner",
      "type": "error"
    },
    {
      "inputs": [
        {
          "internalType": "address",
          "name": "receiver",
          "type": "address"
        }
      ],
      "name": "ERC721InvalidReceiver",
      "type": "error"
    },
    {
      "inputs": [
        {
          "internalType": "address",
          "name": "sender",
          "type": "address"
        }
      ],
      "name": "ERC721InvalidSender",
      "type": "error"
    },
    {
      "inputs": [
        {
          "internalType": "uint256",
          "name": "tokenId",
          "type": "uint256"
        }
      ],
      "name": "ERC721NonexistentToken",
      "type": "error"
    },
    {
      "anonymous": false,
      "inputs": [
        {
          "indexed": true,
          "internalType": "address",
          "name": "owner",
          "type": "address"
        },
        {
          "indexed": true,
          "internalType": "address",
          "name": "approved",
          "type": "address"
        },
        {
          "indexed": true,
          "internalType": "uint256",
          "name": "tokenId",
          "type": "uint256"
        }
      ],
      "name": "Approval",
      "type": "event"
    },
    {
      "anonymous": false,
      "inputs": [
        {
          "indexed": true,
          "internalType": "address",
          "name": "owner",
          "type": "address"
        },
        {
          "indexed": true,
          "internalType": "address",
          "name": "operator",
          "type": "address"
        },
        {
          "indexed": false,
          "internalType": "bool",
          "name": "approved",
          "type": "bool"
        }
      ],
      "name": "ApprovalForAll",
      "type": "event"
    },
    {
      "anonymous": false,
      "inputs": [
        {
          "indexed": false,
          "internalType": "uint256",
          "name": "_fromTokenId",
          "type": "uint256"
        },
        {
          "indexed": false,
          "internalType": "uint256",
          "name": "_toTokenId",
          "type": "uint256"
        }
      ],
      "name": "BatchMetadataUpdate",
      "type": "event"
    },
    {
      "anonymous": false,
      "inputs": [
        {
          "indexed": false,
          "internalType": "uint256",
          "name": "_tokenId",
          "type": "uint256"
        }
      ],
      "name": "MetadataUpdate",
      "type": "event"
    },
    {
      "anonymous": false,
      "inputs": [
        {
          "indexed": false,
          "internalType": "uint256",
          "name": "productId",
          "type": "uint256"
        },
        {
          "indexed": false,
          "internalType": "address",
          "name": "from",
          "type": "address"
        },
        {
          "indexed": false,
          "internalType": "address",
          "name": "to",
          "type": "address"
        }
      ],
      "name": "OwnershipTransferred",
      "type": "event"
    },
    {
      "anonymous": false,
      "inputs": [
        {
          "indexed": false,
          "internalType": "uint256",
          "name": "productId",
          "type": "uint256"
        },
        {
          "indexed": false,
          "internalType": "address",
          "name": "buyer",
          "type": "address"
        },
        {
          "indexed": false,
          "internalType": "uint256",
          "name": "amount",
          "type": "uint256"
        }
      ],
      "name": "PaymentReceived",
      "type": "event"
    },
    {
      "anonymous": false,
      "inputs": [
        {
          "indexed": false,
          "internalType": "uint256",
          "name": "productId",
          "type": "uint256"
        },
        {
          "indexed": false,
          "internalType": "string",
          "name": "status",
          "type": "string"
        }
      ],
      "name": "ProductDelivered",
      "type": "event"
    },
    {
      "anonymous": false,
      "inputs": [
        {
          "indexed": false,
          "internalType": "uint256",
          "name": "productId",
          "type": "uint256"
        },
        {
          "indexed": false,
          "internalType": "address",
          "name": "manufacturer",
          "type": "address"
        },
        {
          "indexed": false,
          "internalType": "string",
          "name": "ipfsHash",
          "type": "string"
        },
        {
          "indexed": false,
          "internalType": "uint256",
          "name": "price",
          "type": "uint256"
        }
      ],
      "name": "ProductMinted",
      "type": "event"
    },
    {
      "anonymous": false,
      "inputs": [
        {
          "indexed": true,
          "internalType": "bytes32",
          "name": "role",
          "type": "bytes32"
        },
        {
          "indexed": true,
          "internalType": "bytes32",
          "name": "previousAdminRole",
          "type": "bytes32"
        },
        {
          "indexed": true,
          "internalType": "bytes32",
          "name": "newAdminRole",
          "type": "bytes32"
        }
      ],
      "name": "RoleAdminChanged",
      "type": "event"
    },
    {
      "anonymous": false,
      "inputs": [
        {
          "indexed": true,
          "internalType": "bytes32",
          "name": "role",
          "type": "bytes32"
        },
        {
          "indexed": true,
          "internalType": "address",
          "name": "account",
          "type": "address"
        },
        {
          "indexed": true,
          "internalType": "address",
          "name": "sender",
          "type": "address"
        }
      ],
      "name": "RoleGranted",
      "type": "event"
    },
    {
      "anonymous": false,
      "inputs": [
        {
          "indexed": true,
          "internalType": "bytes32",
          "name": "role",
          "type": "bytes32"
        },
        {
          "indexed": true,
          "internalType": "address",
          "name": "account",
          "type": "address"
        },
        {
          "indexed": true,
          "internalType": "address",
          "name": "sender",
          "type": "address"
        }
      ],
      "name": "RoleRevoked",
      "type": "event"
    },
    {
      "anonymous": false,
      "inputs": [
        {
          "indexed": true,
          "internalType": "address",
          "name": "from",
          "type": "address"
        },
        {
          "indexed": true,
          "internalType": "address",
          "name": "to",
          "type": "address"
        },
        {
          "indexed": true,
          "internalType": "uint256",
          "name": "tokenId",
          "type": "uint256"
        }
      ],
      "name": "Transfer",
      "type": "event"
    },
    {
      "inputs": [],
      "name": "DEFAULT_ADMIN_ROLE",
      "outputs": [
        {
          "internalType": "bytes32",
          "name": "",
          "type": "bytes32"
        }
      ],
      "stateMutability": "view",
      "type": "function"
    },
    {
      "inputs": [],
      "name": "DISTRIBUTOR_ROLE",
      "outputs": [
        {
          "internalType": "bytes32",
          "name": "",
          "type": "bytes32"
        }
      ],
      "stateMutability": "view",
      "type": "function"
    },
    {
      "inputs": [],
      "name": "MANUFACTURER_ROLE",
      "outputs": [
        {
          "internalType": "bytes32",
          "name": "",
          "type": "bytes32"
        }
      ],
      "stateMutability": "view",
      "type": "function"
    },
    {
      "inputs": [
        {
          "internalType": "address",
          "name": "distributor",
          "type": "address"
        }
      ],
      "name": "addDistributor",
      "outputs": [],
      "stateMutability": "nonpayable",
      "type": "function"
    },
    {
      "inputs": [
        {
          "internalType": "address",
          "name": "manufacturer",
          "type": "address"
        }
      ],
      "name": "addManufacturer",
      "outputs": [],
      "stateMutability": "nonpayable",
      "type": "function"
    },
    {
      "inputs": [
        {
          "internalType": "address",
          "name": "to",
          "type": "address"
        },
        {
          "internalType": "uint256",
          "name": "tokenId",
          "type": "uint256"
        }
      ],
      "name": "approve",
      "outputs": [],
      "stateMutability": "nonpayable",
      "type": "function"
    },
    {
      "inputs": [
        {
          "internalType": "address",
          "name": "owner",
          "type": "address"
        }
      ],
      "name": "balanceOf",
      "outputs": [
        {
          "internalType": "uint256",
          "name": "",
          "type": "uint256"
        }
      ],
      "stateMutability": "view",
      "type": "function"
    },
    {
      "inputs": [
        {
          "internalType": "uint256",
          "name": "productId",
          "type": "uint256"
        }
      ],
      "name": "buyProduct",
      "outputs": [],
      "stateMutability": "payable",
      "type": "function"
    },
    {
      "inputs": [
        {
          "internalType": "uint256",
          "name": "productId",
          "type": "uint256"
        },
        {
          "internalType": "string",
          "name": "status",
          "type": "string"
        }
      ],
      "name": "confirmDelivery",
      "outputs": [],
      "stateMutability": "nonpayable",
      "type": "function"
    },
    {
      "inputs": [
        {
          "internalType": "uint256",
          "name": "tokenId",
          "type": "uint256"
        }
      ],
      "name": "getApproved",
      "outputs": [
        {
          "internalType": "address",
          "name": "",
          "type": "address"
        }
      ],
      "stateMutability": "view",
      "type": "function"
    },
    {
      "inputs": [
        {
          "internalType": "bytes32",
          "name": "role",
          "type": "bytes32"
        }
      ],
      "name": "getRoleAdmin",
      "outputs": [
        {
          "internalType": "bytes32",
          "name": "",
          "type": "bytes32"
        }
      ],
      "stateMutability": "view",
      "type": "function"
    },
    {
      "inputs": [
        {
          "internalType": "bytes32",
          "name": "role",
          "type": "bytes32"
        },
        {
          "internalType": "address",
          "name": "account",
          "type": "address"
        }
      ],
      "name": "grantRole",
      "outputs": [],
      "stateMutability": "nonpayable",
      "type": "function"
    },
    {
      "inputs": [
        {
          "internalType": "bytes32",
          "name": "role",
          "type": "bytes32"
        },
        {
          "internalType": "address",
          "name": "account",
          "type": "address"
        }
      ],
      "name": "hasRole",
      "outputs": [
        {
          "internalType": "bool",
          "name": "",
          "type": "bool"
        }
      ],
      "stateMutability": "view",
      "type": "function"
    },
    {
      "inputs": [
        {
          "internalType": "address",
          "name": "owner",
          "type": "address"
        },
        {
          "internalType": "address",
          "name": "operator",
          "type": "address"
        }
      ],
      "name": "isApprovedForAll",
      "outputs": [
        {
          "internalType": "bool",
          "name": "",
          "type": "bool"
        }
      ],
      "stateMutability": "view",
      "type": "function"
    },
    {
      "inputs": [
        {
          "internalType": "string",
          "name": "_ipfsHash",
          "type": "string"
        },
        {
          "internalType": "uint256",
          "name": "_price",
          "type": "uint256"
        }
      ],
      "name": "mintProductNFT",
      "outputs": [
        {
          "internalType": "uint256",
          "name": "",
          "type": "uint256"
        }
      ],
      "stateMutability": "nonpayable",
      "type": "function"
    },
    {
      "inputs": [],
      "name": "name",
      "outputs": [
        {
          "internalType": "string",
          "name": "",
          "type": "string"
        }
      ],
      "stateMutability": "view",
      "type": "function"
    },
    {
      "inputs": [
        {
          "internalType": "uint256",
          "name": "tokenId",
          "type": "uint256"
        }
      ],
      "name": "ownerOf",
      "outputs": [
        {
          "internalType": "address",
          "name": "",
          "type": "address"
        }
      ],
      "stateMutability": "view",
      "type": "function"
    },
    {
      "inputs": [
        {
          "internalType": "uint256",
          "name": "",
          "type": "uint256"
        }
      ],
      "name": "productPrices",
      "outputs": [
        {
          "internalType": "uint256",
          "name": "",
          "type": "uint256"
        }
      ],
      "stateMutability": "view",
      "type": "function"
    },
    {
      "inputs": [
        {
          "internalType": "bytes32",
          "name": "role",
          "type": "bytes32"
        },
        {
          "internalType": "address",
          "name": "callerConfirmation",
          "type": "address"
        }
      ],
      "name": "renounceRole",
      "outputs": [],
      "stateMutability": "nonpayable",
      "type": "function"
    },
    {
      "inputs": [
        {
          "internalType": "bytes32",
          "name": "role",
          "type": "bytes32"
        },
        {
          "internalType": "address",
          "name": "account",
          "type": "address"
        }
      ],
      "name": "revokeRole",
      "outputs": [],
      "stateMutability": "nonpayable",
      "type": "function"
    },
    {
      "inputs": [
        {
          "internalType": "address",
          "name": "from",
          "type": "address"
        },
        {
          "internalType": "address",
          "name": "to",
          "type": "address"
        },
        {
          "internalType": "uint256",
          "name": "tokenId",
          "type": "uint256"
        }
      ],
      "name": "safeTransferFrom",
      "outputs": [],
      "stateMutability": "nonpayable",
      "type": "function"
    },
    {
      "inputs": [
        {
          "internalType": "address",
          "name": "from",
          "type": "address"
        },
        {
          "internalType": "address",
          "name": "to",
          "type": "address"
        },
        {
          "internalType": "uint256",
          "name": "tokenId",
          "type": "uint256"
        },
        {
          "internalType": "bytes",
          "name": "data",
          "type": "bytes"
        }
      ],
      "name": "safeTransferFrom",
      "outputs": [],
      "stateMutability": "nonpayable",
      "type": "function"
    },
    {
      "inputs": [
        {
          "internalType": "address",
          "name": "operator",
          "type": "address"
        },
        {
          "internalType": "bool",
          "name": "approved",
          "type": "bool"
        }
      ],
      "name": "setApprovalForAll",
      "outputs": [],
      "stateMutability": "nonpayable",
      "type": "function"
    },
    {
      "inputs": [
        {
          "internalType": "bytes4",
          "name": "interfaceId",
          "type": "bytes4"
        }
      ],
      "name": "supportsInterface",
      "outputs": [
        {
          "internalType": "bool",
          "name": "",
          "type": "bool"
        }
      ],
      "stateMutability": "view",
      "type": "function"
    },
    {
      "inputs": [],
      "name": "symbol",
      "outputs": [
        {
          "internalType": "string",
          "name": "",
          "type": "string"
        }
      ],
      "stateMutability": "view",
      "type": "function"
    },
    {
      "inputs": [
        {
          "internalType": "uint256",
          "name": "tokenId",
          "type": "uint256"
        }
      ],
      "name": "tokenURI",
      "outputs": [
        {
          "internalType": "string",
          "name": "",
          "type": "string"
        }
      ],
      "stateMutability": "view",
      "type": "function"
    },
    {
      "inputs": [
        {
          "internalType": "address",
          "name": "from",
          "type": "address"
        },
        {
          "internalType": "address",
          "name": "to",
          "type": "address"
        },
        {
          "internalType": "uint256",
          "name": "tokenId",
          "type": "uint256"
        }
      ],
      "name": "transferFrom",
      "outputs": [],
      "stateMutability": "nonpayable",
      "type": "function"
    },
    {
      "inputs": [
        {
          "internalType": "uint256",
          "name": "productId",
          "type": "uint256"
        },
        {
          "internalType": "address",
          "name": "to",
          "type": "address"
        }
      ],
      "name": "transferProduct",
      "outputs": [],
      "stateMutability": "nonpayable",
      "type": "function"
    }
  ],
  "bytecode": "0x6080604052600160085534801561001557600080fd5b506040518060400160405280601581526020017f456c656374726f6e6963537570706c79436861696e00000000000000000000008152506040518060400160405280600381526020017f45534300000000000000000000000000000000000000000000000000000000008152508160009081610091919061047e565b5080600190816100a1919061047e565b5050506100b76000801b336100bd60201b60201c565b50610550565b60006100cf83836101bb60201b60201c565b6101b05760016007600085815260200190815260200160002060000160008473ffffffffffffffffffffffffffffffffffffffff1673ffffffffffffffffffffffffffffffffffffffff16815260200190815260200160002060006101000a81548160ff02191690831515021790555061014d61022660201b60201c565b73ffffffffffffffffffffffffffffffffffffffff168273ffffffffffffffffffffffffffffffffffffffff16847f2f8788117e7eff1d82e926ec794901d17c78024a50270940304540a733656f0d60405160405180910390a4600190506101b5565b600090505b92915050565b60006007600084815260200190815260200160002060000160008373ffffffffffffffffffffffffffffffffffffffff1673ffffffffffffffffffffffffffffffffffffffff16815260200190815260200160002060009054906101000a900460ff16905092915050565b600033905090565b600081519050919050565b7f4e487b7100000000000000000000000000000000000000000000000000000000600052604160045260246000fd5b7f4e487b7100000000000000000000000000000000000000000000000000000000600052602260045260246000fd5b600060028204905060018216806102af57607f821691505b6020821081036102c2576102c1610268565b5b50919050565b60008190508160005260206000209050919050565b60006020601f8301049050919050565b600082821b905092915050565b60006008830261032a7fffffffffffffffffffffffffffffffffffffffffffffffffffffffffffffffff826102ed565b61033486836102ed565b95508019841693508086168417925050509392505050565b6000819050919050565b6000819050919050565b600061037b6103766103718461034c565b610356565b61034c565b9050919050565b6000819050919050565b61039583610360565b6103a96103a182610382565b8484546102fa565b825550505050565b600090565b6103be6103b1565b6103c981848461038c565b505050565b5b818110156103ed576103e26000826103b6565b6001810190506103cf565b5050565b601f82111561043257610403816102c8565b61040c846102dd565b8101602085101561041b578190505b61042f610427856102dd565b8301826103ce565b50505b505050565b600082821c905092915050565b600061045560001984600802610437565b1980831691505092915050565b600061046e8383610444565b9150826002028217905092915050565b6104878261022e565b67ffffffffffffffff8111156104a05761049f610239565b5b6104aa8254610297565b6104b58282856103f1565b600060209050601f8311600181146104e857600084156104d6578287015190505b6104e08582610462565b865550610548565b601f1984166104f6866102c8565b60005b8281101561051e578489015182556001820191506020850194506020810190506104f9565b8683101561053b5784890151610537601f891682610444565b8355505b6001600288020188555050505b505050505050565b6134748061055f6000396000f3fe6080604052600436106101b75760003560e01c80637250e224116100ec578063b21183881161008a578063d547741f11610064578063d547741f14610643578063e43059e51461066c578063e985e9c514610695578063f0bd87cc146106d2576101b7565b8063b2118388146105b4578063b88d4fde146105dd578063c87b56dd14610606576101b7565b806395d89b41116100c657806395d89b411461050a578063965288b014610535578063a217fddf14610560578063a22cb4651461058b576101b7565b80637250e224146104885780638642269e146104b157806391d14854146104cd576101b7565b80632f2ff15d1161015957806342842e0e1161013357806342842e0e146103bc5780635f8a5afa146103e55780636352211e1461040e57806370a082311461044b576101b7565b80632f2ff15d1461032d57806336568abe1461035657806338eb6a191461037f576101b7565b8063095ea7b311610195578063095ea7b31461026157806323b872dd1461028a578063248a9ca3146102b35780632beed9e5146102f0576101b7565b806301ffc9a7146101bc57806306fdde03146101f9578063081812fc14610224575b600080fd5b3480156101c857600080fd5b506101e360048036038101906101de9190612578565b6106fd565b6040516101f091906125c0565b60405180910390f35b34801561020557600080fd5b5061020e61070f565b60405161021b919061266b565b60405180910390f35b34801561023057600080fd5b5061024b600480360381019061024691906126c3565b6107a1565b6040516102589190612731565b60405180910390f35b34801561026d57600080fd5b5061028860048036038101906102839190612778565b6107bd565b005b34801561029657600080fd5b506102b160048036038101906102ac91906127b8565b6107d3565b005b3480156102bf57600080fd5b506102da60048036038101906102d59190612841565b6108d5565b6040516102e7919061287d565b60405180910390f35b3480156102fc57600080fd5b50610317600480360381019061031291906129cd565b6108f5565b6040516103249190612a38565b60405180910390f35b34801561033957600080fd5b50610354600480360381019061034f9190612a53565b6109b0565b005b34801561036257600080fd5b5061037d60048036038101906103789190612a53565b6109d2565b005b34801561038b57600080fd5b506103a660048036038101906103a191906126c3565b610a4d565b6040516103b39190612a38565b60405180910390f35b3480156103c857600080fd5b506103e360048036038101906103de91906127b8565b610a65565b005b3480156103f157600080fd5b5061040c60048036038101906104079190612a93565b610a85565b005b34801561041a57600080fd5b50610435600480360381019061043091906126c3565b610ac0565b6040516104429190612731565b60405180910390f35b34801561045757600080fd5b50610472600480360381019061046d9190612a93565b610ad2565b60405161047f9190612a38565b60405180910390f35b34801561049457600080fd5b506104af60048036038101906104aa9190612a93565b610b8c565b005b6104cb60048036038101906104c691906126c3565b610bc7565b005b3480156104d957600080fd5b506104f460048036038101906104ef9190612a53565b610cf5565b60405161050191906125c0565b60405180910390f35b34801561051657600080fd5b5061051f610d60565b60405161052c919061266b565b60405180910390f35b34801561054157600080fd5b5061054a610df2565b604051610557919061287d565b60405180910390f35b34801561056c57600080fd5b50610575610e16565b604051610582919061287d565b60405180910390f35b34801561059757600080fd5b506105b260048036038101906105ad9190612aec565b610e1d565b005b3480156105c057600080fd5b506105db60048036038101906105d69190612b2c565b610e33565b005b3480156105e957600080fd5b5061060460048036038101906105ff9190612c29565b610e9b565b005b34801561061257600080fd5b5061062d600480360381019061062891906126c3565b610ec0565b60405161063a919061266b565b60405180910390f35b34801561064f57600080fd5b5061066a60048036038101906106659190612a53565b610fd3565b005b34801561067857600080fd5b50610693600480360381019061068e9190612cac565b610ff5565b005b3480156106a157600080fd5b506106bc60048036038101906106b79190612cec565b6110e0565b6040516106c991906125c0565b60405180910390f35b3480156106de57600080fd5b506106e7611174565b6040516106f4919061287d565b60405180910390f35b600061070882611198565b9050919050565b60606000805461071e90612d5b565b80601f016020809104026020016040519081016040528092919081815260200182805461074a90612d5b565b80156107975780601f1061076c57610100808354040283529160200191610797565b820191906000526020600020905b81548152906001019060200180831161077a57829003601f168201915b5050505050905090565b60006107ac82611212565b506107b68261129a565b9050919050565b6107cf82826107ca6112d7565b6112df565b5050565b600073ffffffffffffffffffffffffffffffffffffffff168273ffffffffffffffffffffffffffffffffffffffff16036108455760006040517f64a0ae9200000000000000000000000000000000000000000000000000000000815260040161083c9190612731565b60405180910390fd5b600061085983836108546112d7565b6112f1565b90508373ffffffffffffffffffffffffffffffffffffffff168173ffffffffffffffffffffffffffffffffffffffff16146108cf578382826040517f64283d7b0000000000000000000000000000000000000000000000000000000081526004016108c693929190612d8c565b60405180910390fd5b50505050565b600060076000838152602001908152602001600020600101549050919050565b60007f6659d833875b88922d2576dad6c137a09ba676496bb2010bf8a72397792167a06109218161150b565b60006008600081548092919061093690612df2565b919050559050610946338261151f565b6109508186611618565b8360096000838152602001908152602001600020819055507ff0271eb11f03e25fdec58462454954357854d178b75039ed68f840d948e8cc878133878760405161099d9493929190612e3a565b60405180910390a1809250505092915050565b6109b9826108d5565b6109c28161150b565b6109cc8383611674565b50505050565b6109da6112d7565b73ffffffffffffffffffffffffffffffffffffffff168173ffffffffffffffffffffffffffffffffffffffff1614610a3e576040517f6697b23200000000000000000000000000000000000000000000000000000000815260040160405180910390fd5b610a488282611766565b505050565b60096020528060005260406000206000915090505481565b610a8083838360405180602001604052806000815250610e9b565b505050565b6000801b610a928161150b565b610abc7f6659d833875b88922d2576dad6c137a09ba676496bb2010bf8a72397792167a0836109b0565b5050565b6000610acb82611212565b9050919050565b60008073ffffffffffffffffffffffffffffffffffffffff168273ffffffffffffffffffffffffffffffffffffffff1603610b455760006040517f89c62b64000000000000000000000000000000000000000000000000000000008152600401610b3c9190612731565b60405180910390fd5b600360008373ffffffffffffffffffffffffffffffffffffffff1673ffffffffffffffffffffffffffffffffffffffff168152602001908152602001600020549050919050565b6000801b610b998161150b565b610bc37f85faced7bde13e1a7dad704b895f006e704f207617d68166b31ba2d79624862d836109b0565b5050565b60096000828152602001908152602001600020543414610c1c576040517f08c379a0000000000000000000000000000000000000000000000000000000008152600401610c1390612ed2565b60405180910390fd5b6000610c2782610ac0565b90508073ffffffffffffffffffffffffffffffffffffffff166108fc349081150290604051600060405180830381858888f19350505050158015610c6f573d6000803e3d6000fd5b507f4d3f6d68b42e1e039d6e7323b2b8bdeaf223f453882ce17a5984f4d6aabbdb33823334604051610ca393929190612ef2565b60405180910390a1610cb6813384611859565b7f16b85f49bf01212961345d3016c9a531894accf62eb7680f2045d79185cc0ec0828233604051610ce993929190612f29565b60405180910390a15050565b60006007600084815260200190815260200160002060000160008373ffffffffffffffffffffffffffffffffffffffff1673ffffffffffffffffffffffffffffffffffffffff16815260200190815260200160002060009054906101000a900460ff16905092915050565b606060018054610d6f90612d5b565b80601f0160208091040260200160405190810160405280929190818152602001828054610d9b90612d5b565b8015610de85780601f10610dbd57610100808354040283529160200191610de8565b820191906000526020600020905b815481529060010190602001808311610dcb57829003601f168201915b5050505050905090565b7f6659d833875b88922d2576dad6c137a09ba676496bb2010bf8a72397792167a081565b6000801b81565b610e2f610e286112d7565b83836119c6565b5050565b7f85faced7bde13e1a7dad704b895f006e704f207617d68166b31ba2d79624862d610e5d8161150b565b7f3ff4db210fb7d49a081126b6eb87761bf02d1f21c7f9772500b47baf0b7560ba8383604051610e8e929190612f60565b60405180910390a1505050565b610ea68484846107d3565b610eba610eb16112d7565b85858585611b35565b50505050565b6060610ecb82611212565b506000600660008481526020019081526020016000208054610eec90612d5b565b80601f0160208091040260200160405190810160405280929190818152602001828054610f1890612d5b565b8015610f655780601f10610f3a57610100808354040283529160200191610f65565b820191906000526020600020905b815481529060010190602001808311610f4857829003601f168201915b505050505090506000610f76611ce6565b90506000815103610f8b578192505050610fce565b600082511115610fc0578082604051602001610fa8929190612fcc565b60405160208183030381529060405292505050610fce565b610fc984611cfd565b925050505b919050565b610fdc826108d5565b610fe58161150b565b610fef8383611766565b50505050565b7f85faced7bde13e1a7dad704b895f006e704f207617d68166b31ba2d79624862d61101f8161150b565b3373ffffffffffffffffffffffffffffffffffffffff1661103f84610ac0565b73ffffffffffffffffffffffffffffffffffffffff1614611095576040517f08c379a000000000000000000000000000000000000000000000000000000000815260040161108c9061303c565b60405180910390fd5b6110a0338385611859565b7f16b85f49bf01212961345d3016c9a531894accf62eb7680f2045d79185cc0ec08333846040516110d393929190612f29565b60405180910390a1505050565b6000600560008473ffffffffffffffffffffffffffffffffffffffff1673ffffffffffffffffffffffffffffffffffffffff16815260200190815260200160002060008373ffffffffffffffffffffffffffffffffffffffff1673ffffffffffffffffffffffffffffffffffffffff16815260200190815260200160002060009054906101000a900460ff16905092915050565b7f85faced7bde13e1a7dad704b895f006e704f207617d68166b31ba2d79624862d81565b60007f7965db0b000000000000000000000000000000000000000000000000000000007bffffffffffffffffffffffffffffffffffffffffffffffffffffffff1916827bffffffffffffffffffffffffffffffffffffffffffffffffffffffff1916148061120b575061120a82611d66565b5b9050919050565b60008061121e83611dc7565b9050600073ffffffffffffffffffffffffffffffffffffffff168173ffffffffffffffffffffffffffffffffffffffff160361129157826040517f7e2732890000000000000000000000000000000000000000000000000000000081526004016112889190612a38565b60405180910390fd5b80915050919050565b60006004600083815260200190815260200160002060009054906101000a900473ffffffffffffffffffffffffffffffffffffffff169050919050565b600033905090565b6112ec8383836001611e04565b505050565b6000806112fd84611dc7565b9050600073ffffffffffffffffffffffffffffffffffffffff168373ffffffffffffffffffffffffffffffffffffffff161461133f5761133e818486611fc9565b5b600073ffffffffffffffffffffffffffffffffffffffff168173ffffffffffffffffffffffffffffffffffffffff16146113d057611381600085600080611e04565b6001600360008373ffffffffffffffffffffffffffffffffffffffff1673ffffffffffffffffffffffffffffffffffffffff168152602001908152602001600020600082825403925050819055505b600073ffffffffffffffffffffffffffffffffffffffff168573ffffffffffffffffffffffffffffffffffffffff1614611453576001600360008773ffffffffffffffffffffffffffffffffffffffff1673ffffffffffffffffffffffffffffffffffffffff168152602001908152602001600020600082825401925050819055505b846002600086815260200190815260200160002060006101000a81548173ffffffffffffffffffffffffffffffffffffffff021916908373ffffffffffffffffffffffffffffffffffffffff160217905550838573ffffffffffffffffffffffffffffffffffffffff168273ffffffffffffffffffffffffffffffffffffffff167fddf252ad1be2c89b69c2b068fc378daa952ba7f163c4a11628f55a4df523b3ef60405160405180910390a4809150509392505050565b61151c816115176112d7565b61208d565b50565b600073ffffffffffffffffffffffffffffffffffffffff168273ffffffffffffffffffffffffffffffffffffffff16036115915760006040517f64a0ae920000000000000000000000000000000000000000000000000000000081526004016115889190612731565b60405180910390fd5b600061159f838360006112f1565b9050600073ffffffffffffffffffffffffffffffffffffffff168173ffffffffffffffffffffffffffffffffffffffff16146116135760006040517f73c6ac6e00000000000000000000000000000000000000000000000000000000815260040161160a9190612731565b60405180910390fd5b505050565b806006600084815260200190815260200160002090816116389190613208565b507ff8e1a15aba9398e019f0b49df1a4fde98ee17ae345cb5f6b5e2c27f5033e8ce7826040516116689190612a38565b60405180910390a15050565b60006116808383610cf5565b61175b5760016007600085815260200190815260200160002060000160008473ffffffffffffffffffffffffffffffffffffffff1673ffffffffffffffffffffffffffffffffffffffff16815260200190815260200160002060006101000a81548160ff0219169083151502179055506116f86112d7565b73ffffffffffffffffffffffffffffffffffffffff168273ffffffffffffffffffffffffffffffffffffffff16847f2f8788117e7eff1d82e926ec794901d17c78024a50270940304540a733656f0d60405160405180910390a460019050611760565b600090505b92915050565b60006117728383610cf5565b1561184e5760006007600085815260200190815260200160002060000160008473ffffffffffffffffffffffffffffffffffffffff1673ffffffffffffffffffffffffffffffffffffffff16815260200190815260200160002060006101000a81548160ff0219169083151502179055506117eb6112d7565b73ffffffffffffffffffffffffffffffffffffffff168273ffffffffffffffffffffffffffffffffffffffff16847ff6391f5c32d9c69d2a47ea670b442974b53935d1edc7fd64eb21e047a839171b60405160405180910390a460019050611853565b600090505b92915050565b600073ffffffffffffffffffffffffffffffffffffffff168273ffffffffffffffffffffffffffffffffffffffff16036118cb5760006040517f64a0ae920000000000000000000000000000000000000000000000000000000081526004016118c29190612731565b60405180910390fd5b60006118d9838360006112f1565b9050600073ffffffffffffffffffffffffffffffffffffffff168173ffffffffffffffffffffffffffffffffffffffff160361194c57816040517f7e2732890000000000000000000000000000000000000000000000000000000081526004016119439190612a38565b60405180910390fd5b8373ffffffffffffffffffffffffffffffffffffffff168173ffffffffffffffffffffffffffffffffffffffff16146119c0578382826040517f64283d7b0000000000000000000000000000000000000000000000000000000081526004016119b793929190612d8c565b60405180910390fd5b50505050565b600073ffffffffffffffffffffffffffffffffffffffff168273ffffffffffffffffffffffffffffffffffffffff1603611a3757816040517f5b08ba18000000000000000000000000000000000000000000000000000000008152600401611a2e9190612731565b60405180910390fd5b80600560008573ffffffffffffffffffffffffffffffffffffffff1673ffffffffffffffffffffffffffffffffffffffff16815260200190815260200160002060008473ffffffffffffffffffffffffffffffffffffffff1673ffffffffffffffffffffffffffffffffffffffff16815260200190815260200160002060006101000a81548160ff0219169083151502179055508173ffffffffffffffffffffffffffffffffffffffff168373ffffffffffffffffffffffffffffffffffffffff167f17307eab39ab6107e8899845ad3d59bd9653f200f220920489ca2b5937696c3183604051611b2891906125c0565b60405180910390a3505050565b60008373ffffffffffffffffffffffffffffffffffffffff163b1115611cdf578273ffffffffffffffffffffffffffffffffffffffff1663150b7a02868685856040518563ffffffff1660e01b8152600401611b94949392919061332f565b6020604051808303816000875af1925050508015611bd057506040513d601f19601f82011682018060405250810190611bcd9190613390565b60015b611c54573d8060008114611c00576040519150601f19603f3d011682016040523d82523d6000602084013e611c05565b606091505b506000815103611c4c57836040517f64a0ae92000000000000000000000000000000000000000000000000000000008152600401611c439190612731565b60405180910390fd5b805181602001fd5b63150b7a0260e01b7bffffffffffffffffffffffffffffffffffffffffffffffffffffffff1916817bffffffffffffffffffffffffffffffffffffffffffffffffffffffff191614611cdd57836040517f64a0ae92000000000000000000000000000000000000000000000000000000008152600401611cd49190612731565b60405180910390fd5b505b5050505050565b606060405180602001604052806000815250905090565b6060611d0882611212565b506000611d13611ce6565b90506000815111611d335760405180602001604052806000815250611d5e565b80611d3d846120de565b604051602001611d4e929190612fcc565b6040516020818303038152906040525b915050919050565b6000634906490660e01b7bffffffffffffffffffffffffffffffffffffffffffffffffffffffff1916827bffffffffffffffffffffffffffffffffffffffffffffffffffffffff19161480611dc05750611dbf826121ac565b5b9050919050565b60006002600083815260200190815260200160002060009054906101000a900473ffffffffffffffffffffffffffffffffffffffff169050919050565b8080611e3d5750600073ffffffffffffffffffffffffffffffffffffffff168273ffffffffffffffffffffffffffffffffffffffff1614155b15611f71576000611e4d84611212565b9050600073ffffffffffffffffffffffffffffffffffffffff168373ffffffffffffffffffffffffffffffffffffffff1614158015611eb857508273ffffffffffffffffffffffffffffffffffffffff168173ffffffffffffffffffffffffffffffffffffffff1614155b8015611ecb5750611ec981846110e0565b155b15611f0d57826040517fa9fbf51f000000000000000000000000000000000000000000000000000000008152600401611f049190612731565b60405180910390fd5b8115611f6f57838573ffffffffffffffffffffffffffffffffffffffff168273ffffffffffffffffffffffffffffffffffffffff167f8c5be1e5ebec7d5bd14f71427d1e84f3dd0314c0f7b2291e5b200ac8c7c3b92560405160405180910390a45b505b836004600085815260200190815260200160002060006101000a81548173ffffffffffffffffffffffffffffffffffffffff021916908373ffffffffffffffffffffffffffffffffffffffff16021790555050505050565b611fd483838361228e565b61208857600073ffffffffffffffffffffffffffffffffffffffff168373ffffffffffffffffffffffffffffffffffffffff160361204957806040517f7e2732890000000000000000000000000000000000000000000000000000000081526004016120409190612a38565b60405180910390fd5b81816040517f177e802f00000000000000000000000000000000000000000000000000000000815260040161207f9291906133bd565b60405180910390fd5b505050565b6120978282610cf5565b6120da5780826040517fe2517d3f0000000000000000000000000000000000000000000000000000000081526004016120d19291906133e6565b60405180910390fd5b5050565b6060600060016120ed8461234f565b01905060008167ffffffffffffffff81111561210c5761210b6128a2565b5b6040519080825280601f01601f19166020018201604052801561213e5781602001600182028036833780820191505090505b509050600082602001820190505b6001156121a1578080600190039150507f3031323334353637383961626364656600000000000000000000000000000000600a86061a8153600a85816121955761219461340f565b5b0494506000850361214c575b819350505050919050565b60007f80ac58cd000000000000000000000000000000000000000000000000000000007bffffffffffffffffffffffffffffffffffffffffffffffffffffffff1916827bffffffffffffffffffffffffffffffffffffffffffffffffffffffff1916148061227757507f5b5e139f000000000000000000000000000000000000000000000000000000007bffffffffffffffffffffffffffffffffffffffffffffffffffffffff1916827bffffffffffffffffffffffffffffffffffffffffffffffffffffffff1916145b806122875750612286826124a2565b5b9050919050565b60008073ffffffffffffffffffffffffffffffffffffffff168373ffffffffffffffffffffffffffffffffffffffff161415801561234657508273ffffffffffffffffffffffffffffffffffffffff168473ffffffffffffffffffffffffffffffffffffffff161480612307575061230684846110e0565b5b8061234557508273ffffffffffffffffffffffffffffffffffffffff1661232d8361129a565b73ffffffffffffffffffffffffffffffffffffffff16145b5b90509392505050565b600080600090507a184f03e93ff9f4daa797ed6e38ed64bf6a1f01000000000000000083106123ad577a184f03e93ff9f4daa797ed6e38ed64bf6a1f01000000000000000083816123a3576123a261340f565b5b0492506040810190505b6d04ee2d6d415b85acef810000000083106123ea576d04ee2d6d415b85acef810000000083816123e0576123df61340f565b5b0492506020810190505b662386f26fc10000831061241957662386f26fc10000838161240f5761240e61340f565b5b0492506010810190505b6305f5e1008310612442576305f5e10083816124385761243761340f565b5b0492506008810190505b612710831061246757612710838161245d5761245c61340f565b5b0492506004810190505b6064831061248a57606483816124805761247f61340f565b5b0492506002810190505b600a8310612499576001810190505b80915050919050565b60007f01ffc9a7000000000000000000000000000000000000000000000000000000007bffffffffffffffffffffffffffffffffffffffffffffffffffffffff1916827bffffffffffffffffffffffffffffffffffffffffffffffffffffffff1916149050919050565b6000604051905090565b600080fd5b600080fd5b60007fffffffff0000000000000000000000000000000000000000000000000000000082169050919050565b61255581612520565b811461256057600080fd5b50565b6000813590506125728161254c565b92915050565b60006020828403121561258e5761258d612516565b5b600061259c84828501612563565b91505092915050565b60008115159050919050565b6125ba816125a5565b82525050565b60006020820190506125d560008301846125b1565b92915050565b600081519050919050565b600082825260208201905092915050565b60005b838110156126155780820151818401526020810190506125fa565b60008484015250505050565b6000601f19601f8301169050919050565b600061263d826125db565b61264781856125e6565b93506126578185602086016125f7565b61266081612621565b840191505092915050565b600060208201905081810360008301526126858184612632565b905092915050565b6000819050919050565b6126a08161268d565b81146126ab57600080fd5b50565b6000813590506126bd81612697565b92915050565b6000602082840312156126d9576126d8612516565b5b60006126e7848285016126ae565b91505092915050565b600073ffffffffffffffffffffffffffffffffffffffff82169050919050565b600061271b826126f0565b9050919050565b61272b81612710565b82525050565b60006020820190506127466000830184612722565b92915050565b61275581612710565b811461276057600080fd5b50565b6000813590506127728161274c565b92915050565b6000806040838503121561278f5761278e612516565b5b600061279d85828601612763565b92505060206127ae858286016126ae565b9150509250929050565b6000806000606084860312156127d1576127d0612516565b5b60006127df86828701612763565b93505060206127f086828701612763565b9250506040612801868287016126ae565b9150509250925092565b6000819050919050565b61281e8161280b565b811461282957600080fd5b50565b60008135905061283b81612815565b92915050565b60006020828403121561285757612856612516565b5b60006128658482850161282c565b91505092915050565b6128778161280b565b82525050565b6000602082019050612892600083018461286e565b92915050565b600080fd5b600080fd5b7f4e487b7100000000000000000000000000000000000000000000000000000000600052604160045260246000fd5b6128da82612621565b810181811067ffffffffffffffff821117156128f9576128f86128a2565b5b80604052505050565b600061290c61250c565b905061291882826128d1565b919050565b600067ffffffffffffffff821115612938576129376128a2565b5b61294182612621565b9050602081019050919050565b82818337600083830152505050565b600061297061296b8461291d565b612902565b90508281526020810184848401111561298c5761298b61289d565b5b61299784828561294e565b509392505050565b600082601f8301126129b4576129b3612898565b5b81356129c484826020860161295d565b91505092915050565b600080604083850312156129e4576129e3612516565b5b600083013567ffffffffffffffff811115612a0257612a0161251b565b5b612a0e8582860161299f565b9250506020612a1f858286016126ae565b9150509250929050565b612a328161268d565b82525050565b6000602082019050612a4d6000830184612a29565b92915050565b60008060408385031215612a6a57612a69612516565b5b6000612a788582860161282c565b9250506020612a8985828601612763565b9150509250929050565b600060208284031215612aa957612aa8612516565b5b6000612ab784828501612763565b91505092915050565b612ac9816125a5565b8114612ad457600080fd5b50565b600081359050612ae681612ac0565b92915050565b60008060408385031215612b0357612b02612516565b5b6000612b1185828601612763565b9250506020612b2285828601612ad7565b9150509250929050565b60008060408385031215612b4357612b42612516565b5b6000612b51858286016126ae565b925050602083013567ffffffffffffffff811115612b7257612b7161251b565b5b612b7e8582860161299f565b9150509250929050565b600067ffffffffffffffff821115612ba357612ba26128a2565b5b612bac82612621565b9050602081019050919050565b6000612bcc612bc784612b88565b612902565b905082815260208101848484011115612be857612be761289d565b5b612bf384828561294e565b509392505050565b600082601f830112612c1057612c0f612898565b5b8135612c20848260208601612bb9565b91505092915050565b60008060008060808587031215612c4357612c42612516565b5b6000612c5187828801612763565b9450506020612c6287828801612763565b9350506040612c73878288016126ae565b925050606085013567ffffffffffffffff811115612c9457612c9361251b565b5b612ca087828801612bfb565b91505092959194509250565b60008060408385031215612cc357612cc2612516565b5b6000612cd1858286016126ae565b9250506020612ce285828601612763565b9150509250929050565b60008060408385031215612d0357612d02612516565b5b6000612d1185828601612763565b9250506020612d2285828601612763565b9150509250929050565b7f4e487b7100000000000000000000000000000000000000000000000000000000600052602260045260246000fd5b60006002820490506001821680612d7357607f821691505b602082108103612d8657612d85612d2c565b5b50919050565b6000606082019050612da16000830186612722565b612dae6020830185612a29565b612dbb6040830184612722565b949350505050565b7f4e487b7100000000000000000000000000000000000000000000000000000000600052601160045260246000fd5b6000612dfd8261268d565b91507fffffffffffffffffffffffffffffffffffffffffffffffffffffffffffffffff8203612e2f57612e2e612dc3565b5b600182019050919050565b6000608082019050612e4f6000830187612a29565b612e5c6020830186612722565b8181036040830152612e6e8185612632565b9050612e7d6060830184612a29565b95945050505050565b7f496e636f72726563742045544820616d6f756e742073656e7400000000000000600082015250565b6000612ebc6019836125e6565b9150612ec782612e86565b602082019050919050565b60006020820190508181036000830152612eeb81612eaf565b9050919050565b6000606082019050612f076000830186612a29565b612f146020830185612722565b612f216040830184612a29565b949350505050565b6000606082019050612f3e6000830186612a29565b612f4b6020830185612722565b612f586040830184612722565b949350505050565b6000604082019050612f756000830185612a29565b8181036020830152612f878184612632565b90509392505050565b600081905092915050565b6000612fa6826125db565b612fb08185612f90565b9350612fc08185602086016125f7565b80840191505092915050565b6000612fd88285612f9b565b9150612fe48284612f9b565b91508190509392505050565b7f596f7520617265206e6f7420746865206f776e65720000000000000000000000600082015250565b60006130266015836125e6565b915061303182612ff0565b602082019050919050565b6000602082019050818103600083015261305581613019565b9050919050565b60008190508160005260206000209050919050565b60006020601f8301049050919050565b600082821b905092915050565b6000600883026130be7fffffffffffffffffffffffffffffffffffffffffffffffffffffffffffffffff82613081565b6130c88683613081565b95508019841693508086168417925050509392505050565b6000819050919050565b60006131056131006130fb8461268d565b6130e0565b61268d565b9050919050565b6000819050919050565b61311f836130ea565b61313361312b8261310c565b84845461308e565b825550505050565b600090565b61314861313b565b613153818484613116565b505050565b5b818110156131775761316c600082613140565b600181019050613159565b5050565b601f8211156131bc5761318d8161305c565b61319684613071565b810160208510156131a5578190505b6131b96131b185613071565b830182613158565b50505b505050565b600082821c905092915050565b60006131df600019846008026131c1565b1980831691505092915050565b60006131f883836131ce565b9150826002028217905092915050565b613211826125db565b67ffffffffffffffff81111561322a576132296128a2565b5b6132348254612d5b565b61323f82828561317b565b600060209050601f8311600181146132725760008415613260578287015190505b61326a85826131ec565b8655506132d2565b601f1984166132808661305c565b60005b828110156132a857848901518255600182019150602085019450602081019050613283565b868310156132c557848901516132c1601f8916826131ce565b8355505b6001600288020188555050505b505050505050565b600081519050919050565b600082825260208201905092915050565b6000613301826132da565b61330b81856132e5565b935061331b8185602086016125f7565b61332481612621565b840191505092915050565b60006080820190506133446000830187612722565b6133516020830186612722565b61335e6040830185612a29565b818103606083015261337081846132f6565b905095945050505050565b60008151905061338a8161254c565b92915050565b6000602082840312156133a6576133a5612516565b5b60006133b48482850161337b565b91505092915050565b60006040820190506133d26000830185612722565b6133df6020830184612a29565b9392505050565b60006040820190506133fb6000830185612722565b613408602083018461286e565b9392505050565b7f4e487b7100000000000000000000000000000000000000000000000000000000600052601260045260246000fdfea26469706673582212204f7e5e78019ef26dd372fee3d1b1b72c6a0558f26663a09fbb0f9bb1711ce97b64736f6c634300081c0033",
  "linkReferences": {},
  "deployedLinkReferences": {}
}